:020000040800F2
:1040000000500020057F0008014B00080D4B000800
:10401000154B00081D4B0008454B00080000000030
:10402000000000000000000000000000557F0008B4
:104030004D4B000800000000557F0008594B000858
:10404000557F0008557F0008557F0008557F000800
:10405000557F0008557F0008557F0008557F0008F0
:10406000557F0008557F0008557F0008557F0008E0
:10407000557F0008557F0008557F0008557F0008D0
:10408000557F0008557F0008557F0008557F0008C0
:10409000557F0008557F0008557F0008557F0008B0
:1040A000557F0008557F0008557F0008557F0008A0
:1040B000557F0008557F0008557F0008557F000890
:1040C000557F0008557F0008557F0008557F000880
:1040D000557F0008754B0008557F0008557F000884
:1040E000557F0008557F0008557F0008000000003C
:1040F00000000000000000000000000000000000C0
:0C41000000000000000000005FF808F163
:10410C00034613F8012B002AFBD1181A013870470B
:10411C000348044B834202D0034B03B1184770474A
:10412C00BC020020BC020020000000000548064B29
:10413C001B1AD90F01EBA301491002D0034B03B199
:10414C0018477047BC020020BC0200200000000091
:10415C0010B5064C237843B9FFF7DAFF044B13B1C3
:10416C000448AFF300800123237010BDBC02002073
:10417C0000000000D889000808B5054B1BB10549A3
:10418C000548AFF30080BDE80840FFF7CFBF00BF84
:10419C0000000000C0020020D889000880B489B05B
:1041AC0000AFF860B9607A60FB68002B05D0BB6883
:1041BC00002B02D07B68002B01D1002319E0FB6897
:1041CC0000221A61FB687A685A60FB68BA681A6048
:1041DC00FB680C33FB6100237B617A69FB691A6015
:1041EC00FB680833BB6100233B613A69BB691A6009
:1041FC00012318462437BD4680BC704780B588B073
:10420C0002AFF860B9607A6000237B6107F1140398
:10421C00002200927A68B968F86800F00AF8034640
:10422C00002B01D07B6900E0002318461837BD46EF
:10423C0080BD80B58CB000AFF860B9607A603B602F
:10424C000023BB6200237B620023FB62BB683B62E2
:10425C00FB68002B0DD0FB681B68002B09D0FB689A
:10426C005B68002B05D0BB68002B02D07B68002B51
:10427C0001D1002371E0F86800F026F978627B6ABE
:10428C00002B08D07A6A7B689A4206D23B8F03F0E7
:10429C000103002B01D000235FE07A687B6A934214
:1042AC0028BF13467B60FB680C33FB61FB691B6802
:1042BC00BFF35B8F7B617B69FB62FB685A68FB6AAF
:1042CC00D31A7A68934228BF1346BB62FB681A68FC
:1042DC00FB6A1344BA6A396A184603F007FF3A6A54
:1042EC00BB6A13443B62FA6ABB6A1344FB627A688A
:1042FC00BB6AD31A7B607B68002B08D0FB681B68F9
:10430C007A68396A184603F0F1FE7B68FB62FB6839
:10431C005B68FA6A9A4201D30023FB62FB680C3398
:10432C00BB61FB6A3B613A69BB69BFF35B8F1A6087
:10433C00FB681B69002B07D0FB681B69B96A7A689C
:10434C000A440121F86898473B68002B04D0BA6AEC
:10435C007B681A443B681A60012318463037BD4607
:10436C0080BD80B588B002AFF860B9607A60002378
:10437C007B6107F11403002200927A68B968F8682F
:10438C0000F00AF80346002B01D07B6900E0002303
:10439C0018461837BD4680BD80B58CB000AFF860AC
:1043AC00B9607A603B600023BB6200237B62002310
:1043BC00FB62BB683B62FB68002B0DD0FB681B6883
:1043CC00002B09D0FB685B68002B05D0BB68002B69
:1043DC0002D07B68002B01D1002371E0F86800F05B
:1043EC00B1F878627B6A002B08D07A6A7B689A42B3
:1043FC0006D23B8F03F00103002B01D000235FE0BA
:10440C007A687B6A934228BF13467B60FB6808334B
:10441C00FB61FB691B68BFF35B8F7B617B69FB6294
:10442C00FB685A68FB6AD31A7A68934228BF134612
:10443C00BB62FB681A68FB6A1344BA6A1946386A8D
:10444C0003F054FE3A6ABB6A13443B62FA6ABB6AD5
:10445C001344FB627A68BB6AD31A7B607B68002BBF
:10446C0008D0FB681B687A681946386A03F03EFE70
:10447C007B68FB62FB685B68FA6A9A4201D3002393
:10448C00FB62FB680833BB61FB6A3B613A69BB6941
:10449C00BFF35B8F1A60FB681B69002B07D0FB68AE
:1044AC001B69B96A7A680A440021F86898473B6826
:1044BC00002B04D0BA6A7B681A443B681A6001234B
:1044CC0018463037BD4680BD80B48BB000AF7860E5
:1044DC0000237B6200233B620023FB617B68002B83
:1044EC0007D07B681B68002B03D07B685B68002BB4
:1044FC0001D1002321E07B680C33BB61BB691B68D5
:10450C003B613B693B627B6808337B617B691B6861
:10451C00FB60FB68FB613A6AFB699A4207D37B68D4
:10452C005A68F9693B6ACB1A13447B6203E0FA6957
:10453C003B6AD31A7B627B6A013B18462C37BD461B
:10454C0080BC704780B48BB000AF786000237B6276
:10455C0000233B620023FB617B68002B07D07B6848
:10456C001B68002B03D07B685B68002B01D10023F8
:10457C0020E07B680C33BB61BB691B683B613B690A
:10458C003B627B6808337B617B691B68FB60FB6863
:10459C00FB613A6AFB699A4204D33A6AFB69D31A03
:1045AC007B6206E07B685A68396AFB69CB1A134454
:1045BC007B627B6A18462C37BD4680BC704780B442
:1045CC0085B000AF78600023FB600DE0FA681346FD
:1045DC009B0013445B001A467B681B781344303BEA
:1045EC00FB607B6801337B607B681B782F2B03D9C6
:1045FC007B681B78392BE9D9FB6818461437BD4604
:10460C0080BC704780B489B000AF786039600023FB
:10461C00FB617B68002B21D13B6830221A703B6810
:10462C00013300221A7036E079681D4BA3FB01237D
:10463C00DA0813469B0013445B00CA1AD2B2FB691A
:10464C00591CF9613032D2B220333B4403F8142C9C
:10465C007B68134AA2FB0323DB087B607B68002B7F
:10466C00E2D10023BB610EE0FB69013BFB61BB693E
:10467C005A1CBA611A463B68134407F10C01FA69DB
:10468C000A4412781A70FB69002BEDDCBB693A689E
:10469C00134400221A702437BD4680BC704700BFFB
:1046AC00CDCCCCCC80B584B000AF786039601F49DC
:1046BC00786803F0D7FCF860FB68002B31D0FB68FE
:1046CC000633FB6002E0FB680133FB60FB681B7880
:1046DC00202BF8D0FB681B78092BF4D00023BB608F
:1046EC000AE0FB685A1CFA60BA68511CB9601146A2
:1046FC003A680A441B781370FB681B78002B0AD0AD
:10470C00FB681B780D2B06D0FB681B780A2B02D09C
:10471C00BB680A2BE5DDBB683A68134400221A70AB
:10472C0000E000BF1037BD4680BD00BFF089000817
:10473C0080B584B000AF786039602B49786803F09D
:10474C0091FCF860FB68002B03D13B6800221A70C7
:10475C0047E0FB680633FB6002E0FB680133FB605B
:10476C00FB681B78202BF8D0FB681B78092BF4D046
:10477C0002E0FB680133FB60FB681B78002B03D065
:10478C00FB681B782C2BF4D1FB681B782C2B02D1EB
:10479C00FB680133FB600023BB600AE0FB685A1C1A
:1047AC00FA60BA68511CB96011463A680A441B7821
:1047BC001370FB681B78002B0ED0FB681B780D2B3D
:1047CC000AD0FB681B780A2B06D0FB681B782C2BB5
:1047DC0002D0BB68062BE1DDBB683A6813440022AB
:1047EC001A701037BD4680BDF889000880B584B0BA
:1047FC0000AFF860B9607A603B6002E0FB6801339F
:10480C00FB60FB681B78002B03D0FB681B783A2BF2
:10481C00F4D1FB681B783A2B06D1FB680133FB60A3
:10482C0002E0FB680133FB60FB681B78202BF8D09F
:10483C00F868FFF7C4FE0346DAB2BB681A7002E0F0
:10484C00FB680133FB60FB681B78002B03D0FB6813
:10485C001B782C2BF4D1FB681B782C2B02D1FB681A
:10486C000133FB60F868FFF7AAFE03469AB27B6837
:10487C001A8002E0FB680133FB60FB681B78002B9D
:10488C0003D0FB681B782C2BF4D1FB681B782C2BEA
:10489C0002D1FB680133FB60F868FFF790FE02461B
:1048AC003B681A6000BF1037BD4680BD80B582B032
:1048BC0000AF78600A220E49786803F0C1FB03460A
:1048CC00002B01D000230EE07B680A337B6002E0F2
:1048DC007B6801337B607B681B78202BF8D0786871
:1048EC00FFF76DFE034618460837BD4680BD00BF76
:1048FC00008A000880B584B000AF01214FF48040DD
:10490C0000F016FF4FF4E1333B600023BB80002323
:10491C00FB8000233B810023BB810C237B813B4626
:10492C001946054800F07AFF0121034801F030F8E0
:10493C0000BF1037BD4680BD0038014080B582B045
:10494C0000AF0121042000F0F3FE4FF40073BB8094
:10495C001823FB710323BB713B1D1946034800F060
:10496C0029FC00BF0837BD4680BD00BF00080140D0
:10497C0080B582B000AF0121042000F0D9FE4FF4C5
:10498C008063BB800423FB713B1D1946034800F078
:10499C0011FC00BF0837BD4680BD00BF00080140B8
:1049AC0080B586B000AF01214FF4804000F0C0FE0E
:1049BC004FF4E133BB600023BB810023FB81002358
:1049CC003B820C237B820023BB8207F10803194630
:1049DC000C4800F023FF012240F22551094800F059
:1049EC00F6FF25233B7100237B710023BB71012350
:1049FC00FB713B1D184600F07BFB00BF1837BD4612
:104A0C0080BD00BF0038014080B582B000AF0121ED
:104A1C00042000F08DFE4FF40063BB801023FB716B
:104A2C000323BB713B1D1946054800F0C3FB4FF433
:104A3C000061034800F07AFC00BF0837BD4680BD1A
:104A4C000008014080B582B000AF0121042000F0C5
:104A5C006FFE4FF48053BB804823FB713B1D1946FE
:104A6C00034800F0A7FB00BF0837BD4680BD00BF60
:104A7C000008014080B582B000AF0121042000F095
:104A8C0057FE4FF40043BB801023FB710323BB7113
:104A9C003B1D1946054800F08DFB4FF400410348BF
:104AAC0000F044FC00BF0837BD4680BD0008014043
:104ABC0080B500AFFFF742FFFFF75AFFFFF770FF1B
:104ACC00FFF718FFFFF7A0FFFFF7BCFFFFF7D2FFC0
:104ADC0000BF80BD80B500AF00F012FA00F05EFAA6
:104AEC00FFF7E6FF00F060FA4FF47A7000F0C2FABC
:104AFC0000BF80BD80B400AF00BFBD4680BC704716
:104B0C0080B400AF00BFFDE780B400AF00BFFDE78D
:104B1C0080B582B000AF064B9B6A7B60044B9B6BED
:104B2C003B603A687968034801F0BCF900BFFDE7C7
:104B3C0000ED00E00C8A000880B400AF00BFFDE778
:104B4C0080B400AF00BFBD4680BC704780B400AFDE
:104B5C00044B1B680133034A136000BFBD4680BC85
:104B6C00704700BFD802002080B582B000AF40F281
:104B7C0025510B4800F0ADFF0346002B0BD0084825
:104B8C0000F07DFF0346DBB2FB71FB1D01221946D1
:104B9C000448FFF733FB00BF0837BD4680BD00BF9C
:104BAC00003801409807002080B500AF154B1B68FA
:104BBC00144A43F001031360124B5A681149124B0B
:104BCC0013404B600F4B1B680E4A23F0847323F485
:104BDC00803313600B4B1B680A4A23F48023136049
:104BEC00084B5B68074A23F4FE035360054B4FF4F4
:104BFC001F029A6000F0BDF8044B4FF000629A60FF
:104C0C0000BF80BD001002400000FFF800ED00E086
:104C1C0080B485B000AF0023FB600023BB60002391
:104C2C007B602F4B5B6803F00C03FB60FB68082B6D
:104C3C0011D0FB68082B3AD8FB68002B03D0FB681B
:104C4C00042B04D033E0274B274A1A6033E0254B62
:104C5C00254A1A602FE0224B5B6803F47013BB608B
:104C6C001F4B5B6803F480337B60BB689B0C023387
:104C7C00BB607B68002B06D1BB681C4A02FB03F3AC
:104C8C00184A136017E0164B5B6803F40033002BD3
:104C9C0006D0BB68154A02FB03F3124A13600AE004
:104CAC00BB68114A02FB03F30E4A136003E00D4B81
:104CBC000D4A1A6000BF0A4B5B681B0903F00F0317
:104CCC000B4AD35CDBB2FB60064B1A68FB6822FA1A
:104CDC0003F3044A136000BF1437BD4680BC704711
:104CEC00001002400000002000127A0000093D0074
:104CFC008C92000880B582B000AF00F033FB4FF40B
:104D0C00803000F05DFB00F089FB0346FB71FB7902
:104D1C00012B28D1102000F0E9FF022000F0CAFF7F
:104D2C00002000F0FBFB002000F030FC4FF4806012
:104D3C0000F010FC4FF4E0114FF4803000F096FBC3
:104D4C00012000F0B1FB00BF392000F02DFD03461F
:104D5C00002BF9D0022000F0B7FB00BF00F0D0FB15
:104D6C000346082BFAD1FFF753FF00BF0837BD46A7
:104D7C0080BD80B500AF00F003F800BF80BD00001F
:104D8C0080B483B000AF00237B6000233B603A4BC0
:104D9C001B68394A43F480331360374B1B6803F4A8
:104DAC0000333B607B6801337B603B68002B03D195
:104DBC007B68B3F5A06FF0D12F4B1B6803F4003365
:104DCC00002B02D001233B6001E000233B603B68D9
:104DDC00012B4BD1294B1B68284A43F0100313605D
:104DEC00264B1B68254A23F003031360234B1B68D7
:104DFC00224A43F0020313601F4B1F4A5B68536047
:104E0C001D4B1D4A5B6853601B4B5B681A4A43F48D
:104E1C0080635360184B5B68174A23F47C13536010
:104E2C00154B5B68144A43F4E8135360124B1B6830
:104E3C00114A43F08073136000BF0F4B1B6803F0E3
:104E4C000073002BF9D00C4B5B680B4A23F0030367
:104E5C005360094B5B68084A43F00203536000BF80
:104E6C00054B5B6803F00C03082BF9D100BF0C3722
:104E7C00BD4680BC704700BF0010024000200240BD
:104E8C0080B586B000AF0121042000F051FC012157
:104E9C004FF4003000F06AFC0423BB820323BB7583
:104EAC001823FB7507F114031946134800F082F917
:104EBC000823BB820423FB7507F1140319460E4823
:104ECC0000F078F94FF4E1337B6000233B81002341
:104EDC007B810023BB8100233B820C23FB813B1D88
:104EEC001946064800F09AFC0121044800F050FDD8
:104EFC0000BF1837BD4680BD00080140004400408B
:104F0C0080B500AFFFF7BCFF00BF80BDB0B588B067
:104F1C0000AF012141F2040000F00AFC194B1B68A0
:104F2C00FB61194B1B68BB61184B1B687B6107F15C
:104F3C001C031946164800F03DF907F118031946F1
:104F4C00134800F037F907F114031946104800F024
:104F5C0031F910210E4800F0E9F90E4B3C461D4684
:104F6C000FCD0FC42B6823803B4619460A4800F02E
:104F7C000AFE0121084800F049FE00BF2037BD465B
:104F8C00B0BD00BF348A0008388A00083C8A00088B
:104F9C0000080140408A00080030014080B500AF95
:104FAC00FFF7B4FF00BF80BD80B582B000AF012118
:104FBC00102000F0BDFB4FF40053BB801023FB719D
:104FCC000223BB713B1D1946034800F0F3F800BFE8
:104FDC000837BD4680BD00BF0010014080B483B0CF
:104FEC0000AF03463960FB7197F90730002B0BDAE1
:104FFC003B68DAB20C49FB7903F00F03043B120156
:10500C00D2B20B441A7609E03B68DAB2074997F939
:10501C0007301201D2B20B4483F8002300BF0C37C7
:10502C00BD4680BC704700BF00ED00E000E100E031
:10503C0080B582B000AF78607B68B3F1807F01D31C
:10504C00012311E07B6823F07F43094A013B536045
:10505C000F214FF0FF30FFF7C1FF054B00229A6084
:10506C00034B07221A60002318460837BD4680BD43
:10507C0010E000E080B584B000AF7860FFF7C8FDA9
:10508C00094B1A687B68B2FBF3F3FB60FB68B3F166
:10509C00807F01D300BFFDE7F868FFF7C9FF00BFB1
:1050AC001037BD4680BD00BF0000002080B485B025
:1050BC0000AF7860084B1B68FB6000BF064B1A689A
:1050CC00FB68D31A7A689A42F8D800BF00BF14372D
:1050DC00BD4680BC704700BFD802002080B400AF32
:1050EC00024B1B681846BD4680BC7047D802002096
:1050FC0080B487B000AF786000237B6100233B61F4
:10510C000F23FB607B68DB78002B3AD0274BDB68E6
:10511C00DB431B0A03F007037B617B69C3F10403C8
:10512C003B61FA687B6922FA03F3FB607B685B786E
:10513C001A463B6902FA03F37B617B689B781A463B
:10514C00FB6813407A6913437B617B691B017B61AC
:10515C00174A7B681B787969C9B213440A4683F8ED
:10516C0000237B681B7803F01F0311497A681278BF
:10517C005209D2B21046012202FA03F341F8203050
:10518C000FE07B681B7803F01F0309497A681278DB
:10519C005209D2B2104601229A4000F1200341F884
:1051AC00232000BF1C37BD4680BC704700ED00E0DB
:1051BC0000E100E080B489B000AF78603960002372
:1051CC00FB6100233B610023BB610023FB600023D8
:1051DC007B610023BB603B68DB7803F00F03FB6152
:1051EC003B68DB7803F01003002B05D03B689B7801
:1051FC001A46FB691343FB613B681B88DBB2002B2F
:10520C0044D07B681B687B610023BB6138E00122C2
:10521C00BB6902FA03F3FB603B681B881A46FB6808
:10522C0013403B613A69FB689A4226D1BB699B00EB
:10523C00FB600F22FB6802FA03F3BB60BB68DB4325
:10524C007A6913407B61FA69FB6802FA03F37A69A5
:10525C0013437B613B68DB78282B05D10122BB69AA
:10526C009A407B685A6108E03B68DB78482B04D194
:10527C000122BB699A407B681A61BB690133BB612F
:10528C00BB69072BC3D97B687A691A603B681B889A
:10529C00FF2B46D97B685B687B610023BB613AE0DE
:1052AC00BB690833012202FA03F3FB603B681B88DD
:1052BC001A46FB6813403B613A69FB689A4227D156
:1052CC00BB699B00FB600F22FB6802FA03F3BB6017
:1052DC00BB68DB437A6913407B61FA69FB6802FAAD
:1052EC0003F37A6913437B613B68DB78282B05D188
:1052FC00BB69083301229A407B685A613B68DB78B2
:10530C00482B05D1BB69083301229A407B681A618E
:10531C00BB690133BB61BB69072BC1D97B687A6957
:10532C005A6000BF2437BD4680BC704780B483B040
:10533C0000AF78600B467B807A887B681A6100BF6F
:10534C000C37BD4680BC704780B483B000AF78602A
:10535C000B467B807A887B685A6100BF0C37BD4650
:10536C0080BC704780B400AF134B1B68124A43F0EB
:10537C0001031360104B5A680F49104B13404B60DC
:10538C000D4B1B680C4A23F0847323F48033136099
:10539C00094B1B68084A23F480231360064B5B6897
:1053AC00054A23F4FE035360034B4FF41F029A602B
:1053BC0000BFBD4680BC7047001002400000FFF8E3
:1053CC0080B483B000AF7860134B1B68124A23F48F
:1053DC0080331360104B1B680F4A23F48023136037
:1053EC007B68B3F5803F04D07B68B3F5802F07D082
:1053FC000DE0094B1B68084A43F48033136006E048
:10540C00054B1B68044A43F4A023136000BF00BF84
:10541C000C37BD4680BC70470010024080B582B08E
:10542C0000AF00233B600023FB710023BB713120D4
:10543C0000F0BAF90346BB713B6801333B603B6833
:10544C00B3F5A06F02D0BB79002BF0D0312000F067
:10545C00ABF90346002B02D00123FB7101E00023C2
:10546C00FB71FB7918460837BD4680BD80B485B00A
:10547C0000AF786039600023FB600A4B5B68FB600F
:10548C00FB6823F47C13FB607A683B681343FA686F
:10549C001343FB60034AFB68536000BF1437BD46DF
:1054AC0080BC70470010024080B483B000AF03464C
:1054BC00FB71044AFB79136000BF0C37BD4680BCFE
:1054CC00704700BF6000424280B485B000AF786086
:1054DC000023FB60094B5B68FB60FB6823F0030354
:1054EC00FB60FA687B681343FB60044AFB685360FB
:1054FC0000BF1437BD4680BC704700BF001002408F
:10550C0080B400AF044B5B68DBB203F00C03DBB27E
:10551C001846BD4680BC70470010024080B485B070
:10552C0000AF78600023FB60094B5B68FB60FB6895
:10553C0023F0F003FB60FA687B681343FB60044ABA
:10554C00FB68536000BF1437BD4680BC704700BF7A
:10555C000010024080B485B000AF78600023FB607F
:10556C00094B5B68FB60FB6823F4E063FB60FA6843
:10557C007B681343FB60044AFB68536000BF14371D
:10558C00BD4680BC704700BF0010024080B485B09F
:10559C0000AF78600023FB60094B5B68FB60FB6825
:1055AC0023F46053FB607B68DB00FA681343FB60F9
:1055BC00034AFB68536000BF1437BD4680BC70477C
:1055CC000010024080B487B000AF786000237B618C
:1055DC0000233B610023FB600023BB604F4B5B68E7
:1055EC0003F00C037B617B69082B11D07B69082BC2
:1055FC003AD87B69002B03D07B69042B04D033E0B1
:10560C007B68474A1A6033E07B68454A1A602FE092
:10561C00424B5B6803F470133B61404B5B6803F4D3
:10562C008033FB603B699B0C02333B61FB68002BB6
:10563C0006D13B693B4A03FB02F27B681A6017E018
:10564C00364B5B6803F40033002B06D03B69354ABC
:10565C0003FB02F27B681A600AE03B69304A03FBE9
:10566C0002F27B681A6003E07B682D4A1A6000BF67
:10567C002A4B5B6803F0F0037B617B691B097B6140
:10568C00294A7B6913441B78DBB2BB607B681A68C0
:10569C00BB68DA407B685A60204B5B6803F4E063BC
:1056AC007B617B691B0A7B611F4A7B6913441B78F6
:1056BC00DBB2BB607B685A68BB68DA407B689A6077
:1056CC00164B5B6803F460537B617B69DB0A7B617F
:1056DC00154A7B6913441B78DBB2BB607B685A6844
:1056EC00BB68DA407B68DA600C4B5B6803F44043C0
:1056FC007B617B699B0B7B610C4A7B6913441B7838
:10570C00DBB2BB607B68DA68BB68B2FBF3F27B6828
:10571C001A6100BF1C37BD4680BC704700100240A8
:10572C0000127A0000093D009C920008AC9200081F
:10573C0080B483B000AF78600B46FB70FB78002B15
:10574C0006D0094B9A6908497B6813438B6106E0C4
:10575C00054B9A697B68DB43034913408B6100BF9F
:10576C000C37BD4680BC70470010024080B483B03B
:10577C0000AF78600B46FB70FB78002B06D0094B12
:10578C00DA6908497B681343CB6106E0054BDA699B
:10579C007B68DB4303491340CB6100BF0C37BD462C
:1057AC0080BC70470010024080B487B000AF034645
:1057BC00FB710023FB6000237B610023FB74FB79EE
:1057CC005B09DBB2FB60FB68012B03D1124B1B683E
:1057DC007B6109E0FB68022B03D10F4B1B6A7B61D9
:1057EC0002E00D4B5B6A7B61FB7903F01F03FB60EE
:1057FC007A69FB6822FA03F303F00103002B02D051
:10580C000123FB7401E00023FB74FB7C18461C375E
:10581C00BD4680BC704700BF0010024080B58CB004
:10582C0000AF786039600023FB620023BB62002369
:10583C007B6200233B620023FB617B68FB617B681E
:10584C001B8A9BB2FB62FA6A4CF6FF731340FB6235
:10585C003B68DB881A46FB6A1343FB62FB6A9AB20D
:10586C007B681A827B689B899BB2FB62FA6A4EF654
:10587C00F3131340FB623B689A883B681B89134304
:10588C009AB23B685B8913439BB21A46FB6A13437B
:10589C00FB62FB6A9AB27B689A817B689B8A9BB29B
:1058AC00FB62FA6A4FF6FF431340FB623B689B892D
:1058BC001A46FB6A1343FB62FB6A9AB27B689A82B4
:1058CC0007F108031846FFF77DFEFB692E4A934249
:1058DC0002D17B69BB6201E03B69BB627B689B893F
:1058EC009BB21BB2002B0CDABA6A13469B00134412
:1058FC009A001A443B681B685B00B2FBF3F37B62B3
:10590C000BE0BA6A13469B0013449A001A443B6896
:10591C001B689B00B2FBF3F37B627B6A1B4AA2FB06
:10592C0003235B091B01FB62FB6A1B09642202FB5C
:10593C0003F37A6AD31A3B627B689B899BB21BB2D6
:10594C00002B0CDA3B6ADB003233104AA2FB032338
:10595C005B0903F00703FA6A1343FB620BE03B6A33
:10596C001B013233094AA2FB03235B0903F00F032B
:10597C00FA6A1343FB62FB6A9AB27B681A8100BF16
:10598C003037BD4680BD00BF003801401F85EB514C
:10599C0080B483B000AF78600B46FB70FB78002BB3
:1059AC0008D07B689B899BB243F400539AB27B6806
:1059BC009A8107E07B689B899BB223F400539AB2CF
:1059CC007B689A8100BF0C37BD4680BC704780B4A1
:1059DC0087B000AF78600B467B8013467B7000234A
:1059EC003B610023FB600023BB6000237B617B6871
:1059FC007B617B88DBB25B09DBB23B617B8803F0AC
:105A0C001F03FB600122FB6802FA03F3BB603B69D6
:105A1C00012B03D17B690C337B6109E03B69022BC1
:105A2C0003D17B6910337B6102E07B6914337B61AA
:105A3C007B78002B06D07B6919687B69BA680A43AE
:105A4C001A6006E07B691968BB68DA437B690A4017
:105A5C001A6000BF1C37BD4680BC704780B483B051
:105A6C0000AF78600B467B807B88C3F308039AB247
:105A7C007B689A8000BF0C37BD4680BC704780B4F1
:105A8C0083B000AF78607B689B889BB2C3F308033C
:105A9C009BB218460C37BD4680BC704780B485B0AD
:105AAC0000AF78600B467B800023FB737B681B8800
:105ABC009AB27B8813409BB2002B02D00123FB735C
:105ACC0001E00023FB73FB7B18461437BD4680BCFA
:105ADC00704780B487B000AF78600B467B800023A2
:105AEC00FB6000237B610023BB600023FB747B887D
:105AFC00DBB25B09DBB2BB607B8803F01F037B610D
:105B0C0001227B6902FA03F37B61BB68012B07D18D
:105B1C007B689B899BB21A467B6913407B6111E0C1
:105B2C00BB68022B07D17B681B8A9BB21A467B6928
:105B3C0013407B6106E07B689B8A9BB21A467B69AB
:105B4C0013407B617B881B0A9BB2FB600122FB68C4
:105B5C0002FA03F3FB607B681B889BB21A46FB6856
:105B6C001340FB607B69002B05D0FB68002B02D037
:105B7C000123FB7401E00023FB74FB7C18461C37EB
:105B8C00BD4680BC704780B485B000AF786039608A
:105B9C000023FB817B681B88FB81FB8903F4415349
:105BAC00FB813B681A883B685B8813439AB23B685D
:105BBC009B8813439AB23B68DB8813439AB23B68C9
:105BCC001B8913439AB23B685B8913439AB23B68B7
:105BDC009B8913439AB23B68DB8913439AB2FB89C6
:105BEC001343FB817B68FA891A807B689B8B9BB281
:105BFC0023F400639AB27B689A833B681A8A7B68A9
:105C0C001A8200BF1437BD4680BC704780B483B085
:105C1C0000AF78600B46FB70FB78002B08D07B68DC
:105C2C001B889BB243F040039AB27B681A8007E052
:105C3C007B681B889BB223F040039AB27B681A8066
:105C4C0000BF0C37BD4680BC704780B483B000AF3A
:105C5C0078600B467B807B687A889A8100BF0C3712
:105C6C00BD4680BC704780B483B000AF78607B6861
:105C7C009B899BB218460C37BD4680BC704780B4DC
:105C8C0085B000AF78600B467B800023FB737B688C
:105C9C001B899AB27B8813409BB2002B02D0012344
:105CAC00FB7301E00023FB73FB7B18461437BD46E6
:105CBC0080BC704780B485B000AF78600023FB6077
:105CCC00094B1B68FB60FB6803F03803FB60FA6848
:105CDC007B681343FB60044AFB68136000BF1437F6
:105CEC00BD4680BC704700BF0020024080B483B02A
:105CFC0000AF7860084B1B68074A23F01003136051
:105D0C00054B1A6804497B6813430B6000BF0C37C2
:105D1C00BD4680BC704700BF0020024080B400AF7D
:105D2C00044B054A5A60034B044A5A6000BFBD46F7
:105D3C0080BC70470020024023016745AB89EFCD42
:105D4C0080B400AF044B1B69034A43F0800313611A
:105D5C0000BFBD4680BC70470020024080B584B0B7
:105D6C0000AF786039600423FB730023BB604FF4F1
:105D7C00005000F075F80346FB73FB7B042B2FD10E
:105D8C001A4B1B69194A43F0010313617B683A688B
:105D9C0092B21A804FF4005000F062F80346FB7385
:105DAC00FB7B042B15D17B680233BB603B681A0C60
:105DBC00BB6892B21A804FF4005000F051F80346C1
:105DCC00FB730A4B1A69094941F6FE7313400B61C8
:105DDC0006E0064B1A69054941F6FE7313400B6148
:105DEC00FB7B18461037BD4680BD00BF002002402B
:105DFC0080B483B000AF7860034A7B68D36000BF87
:105E0C000C37BD4680BC70470020024080B483B084
:105E1C0000AF0423FB71114BDB6803F00103012B72
:105E2C0002D10123FB7113E00C4BDB6803F004037C
:105E3C00002B02D00223FB710AE0084BDB6803F055
:105E4C001003002B02D00323FB7101E00423FB7130
:105E5C00FB7918460C37BD4680BC704700200240C9
:105E6C0080B584B000AF78600423FB73FFF7CEFFDE
:105E7C000346FB7306E0FFF7C9FF0346FB737B6821
:105E8C00013B7B60FB7B012B02D17B68002BF2D1A9
:105E9C007B68002B01D10523FB73FB7B1846103765
:105EAC00BD4680BD0FB480B5C2B000AF07F58A7295
:105EBC0007F58473A3F582731A6007F58473A3F551
:105ECC00827307F108001B68D7F810214FF480711A
:105EDC0002F0A0F807F108031946054800F02EF867
:105EEC0000BF07F58477BD46BDE8804004B070471D
:105EFC000044004080B582B000AF0346FB8000BF79
:105F0C0002210D48FFF7BBFE0346002BF8D0FB889F
:105F1C0019460948FFF799FE00BF01210648FFF713
:105F2C00AEFE0346002BF8D00348FFF79CFE034659
:105F3C0018460837BD4680BD0030014080B582B0A0
:105F4C0000AF786039600FE03B685A1C3A601B78F0
:105F5C0019467868FFF782FD00BF80217868FFF74B
:105F6C009DFD0346002BF8D03B681B78002BEBD132
:105F7C0000BF00BF0837BD4680BD000080B582B0B1
:105F8C0000AF10210948FFF7DFF90520FFF7B2FF3A
:105F9C00FF20FFF7AFFF0346FB7110210348FFF70B
:105FAC00C5F9FB7918460837BD4680BD000801408D
:105FBC0080B500AF00BFFFF7E1FF034603F001031C
:105FCC00002BF8D100BF00BF80BD000080B500AF32
:105FDC0010210648FFF7B8F90620FFF78BFF1021B8
:105FEC000248FFF7A3F900BF80BD00BF00080140C5
:105FFC0080B500AFFFF7DCFFFFF7E8FF1021074883
:10600C00FFF7A2F9C720FFF775FF10210348FFF730
:10601C008DF9FFF7CDFF00BF80BD00BF0008014028
:10602C0080B586B000AFF860B9601346FB80FB8882
:10603C00B3F5807F02D94FF48073FB80FFF7B8FF74
:10604C00FFF7C4FF10211C48FFF77EF90220FFF771
:10605C0051FFFB681B0C9BB2DBB29BB21846FFF7DF
:10606C0049FFFB681B0A9BB2DBB29BB21846FFF7D9
:10607C0041FFFB689BB2DBB29BB21846FFF73AFFBD
:10608C000023FB8209E0FB8ABA6813441B7818468C
:10609C00FFF730FFFB8A0133FB82FA8AFB889A42B6
:1060AC00F1D310210448FFF741F9FFF781FF00BF3E
:1060BC001837BD4680BD00BF0008014080B588B0D0
:1060CC0000AFF860B9607A601FE0FB68DBB2FB617F
:1060DC00FB69C3F58073BB61BA697B68934228BFC7
:1060EC0013467B617B699BB21A46B968F868FFF767
:1060FC0097FFFA687B691344FB60BA687B691344A9
:10610C00BB607A687B69D31A7B607B68002BDCD11F
:10611C0000BF00BF2037BD4680BD000080B582B0F7
:10612C0000AF00F067F8134B1B78002B1ED0FEF766
:10613C00D5FF7860104BD3F8A0307A68D21A0E4B8A
:10614C00D3F8A4309A4211D30A4B00221A700A4B8E
:10615C00D3F8A830002B09D0074BD3F8A83007226E
:10616C00064902209847034B00221A7000BF0837DB
:10617C00BD4680BDE0020020E4020020548A0008E5
:10618C0084B080B500AF07F1080C8CE80F00144BFD
:10619C001B78002B01D000231CE0124B184607F192
:1061AC000803AC22194601F0A1FF0D4B01221A7015
:1061BC000C490D48FFF7C2FE0C490B48FFF7BEFE19
:1061CC000B48FFF76FFE0748FFF76CFE0748FFF719
:1061DC0069FE01231846BD46BDE8804004B07047F7
:1061EC00E0020020E4020020003801405C8A000834
:1061FC00608A000880B582B000AF3BE0244B1B786E
:10620C00012B13D1234B1B685A1C22490A60FA79C3
:10621C001A70214B1B68013B1F4A13601E4B1B68F5
:10622C00002B26D11A4B02221A7022E01B4B1B8822
:10623C0040F2FE3293420CD8FB79FF2B09D0174B5E
:10624C001B885A1C91B2154A11801A46F979144BC5
:10625C009954FB790A2B0DD1104B1B881A46104B05
:10626C00002199540E4800F03DF90C4B00221A8085
:10627C0000E000BFFB1D012219460A48FEF771F829
:10628C000346002BBAD100BF00BF0837BD4680BD06
:10629C00480E0020040000204C0E0020900300202B
:1062AC00940300209807002080B582B000AF78607E
:1062BC007B68002B04D10023E7E07B6801337B6013
:1062CC007B681B78202BF8D07B681B78092BF4D0CB
:1062DC007B681B78002B01D10023D6E07B681B78F0
:1062EC002B2B07D07B681B782A2B03D07B681B7861
:1062FC005E2B01D10123C8E003226649786801F0C6
:10630C009FFE0346002B01D10123BEE0052262490A
:10631C00786801F095FE0346002B01D10123B4E00F
:10632C0008225E49786801F08BFE0346002B01D1F0
:10633C000123AAE009225A49786801F081FE03463C
:10634C00002B01D10123A0E00A225649786801F004
:10635C0077FE0346002B01D1012396E0042252491B
:10636C00786801F06DFE0346002B01D101238CE00F
:10637C000A224E49786801F063FE0346002B01D1D6
:10638C00012382E004224A49786801F059FE034651
:10639C00002B01D1012378E009224649786801F0ED
:1063AC004FFE0346002B01D101236EE0112242491E
:1063BC00786801F045FE0346002B01D1012364E00F
:1063CC0018223E49786801F03BFE0346002B01D1B0
:1063DC0001235AE016223A49786801F031FE03464F
:1063EC00002B01D1012350E017223649786801F0C7
:1063FC0027FE0346002B01D1012346E0152232492A
:10640C00786801F01DFE0346002B01D101233CE00E
:10641C0009222E49786801F013FE0346002B01D1A6
:10642C00012332E00B222A49786801F009FE034669
:10643C00002B01D1012328E00C222649786801F0B9
:10644C00FFFD0346002B01D101231EE00922224946
:10645C00786801F0F5FD0346002B01D1012314E00F
:10646C0008221E49786801F0EBFD0346002B01D190
:10647C0001230AE007221A49786801F0E1FD03467E
:10648C00002B01D1012300E0002318460837BD463C
:10649C0080BD00BF6C8A0008708A0008788A0008EA
:1064AC00848A0008908A00089C8A0008A48A000844
:1064BC00B08A0008B88A0008C48A0008D88A000884
:1064CC00F48A00080C8B0008248B00083C8B000815
:1064DC00488B0008548B0008648B0008708B0008F4
:1064EC007C8B000880B582B000AF78607868FFF7CD
:1064FC00DBFE034683F00103DBB2002B03D078688C
:10650C0000F008F802E0786800F098F800BF08374F
:10651C00BD4680BD90B585B000AF7860424B1B780E
:10652C0083F00103DBB2002B71D17868FDF7E8FD35
:10653C00F860FB68002B6CD07B681B780D2B68D047
:10654C007B681B780A2B64D0384B93F88030002B77
:10655C001DD03748FDF7D4FD03461A4634497868F8
:10656C0001F06EFD0346002B11D1304BD3F8A8304F
:10657C00002B50D02D4BD3F8A8407868FDF7C0FD08
:10658C000346DBB21A4679680320A04743E0294949
:10659C00786801F067FD0346002B0FD0224B0022D8
:1065AC001A70224BD3F8A830002B36D01F4BD3F8DF
:1065BC00A83002227968002098472EE01E4978689E
:1065CC0001F050FD0346002B0FD0174B00221A7020
:1065DC00164BD3F8A830002B21D0144BD3F8A8308D
:1065EC00052279680120984719E0104BD3F8A830A0
:1065FC00002B15D00D4BD3F8A8407868FDF780FD23
:10660C000346DBB21A4679680420A04708E000BFB5
:10661C0006E000BF04E000BF02E000BF00E000BFE6
:10662C001437BD4690BD00BFE0020020E4020020FC
:10663C0064030020848B0008888B000880B58CB024
:10664C0000AF78605D49786801F00CFD0346002BC3
:10665C0022D007F11C0319467868FEF723F807F1DE
:10666C001C035749184601F0FDFC0346002B03D0D0
:10667C00002000F0C9FE0FE007F11C035149184639
:10668C0001F0F0FC0346002B03D0022000F0BCFE0E
:10669C0002E0012000F0B8FE4B49786801F0E2FC02
:1066AC000346002B44D007F1140319467868FEF713
:1066BC003FF807F114031846FDF781FF034687F8EE
:1066CC002F3097F82F30072B32D801A252F823F035
:1066DC000D670008FD660008156700081D670008B7
:1066EC0025670008056700082D6700083567000856
:1066FC00012000F099FE1BE0052000F095FE17E04C
:10670C00002000F091FE13E0022000F08DFE0FE05F
:10671C00032000F089FE0BE0042000F085FE07E06A
:10672C00062000F081FE03E0072000F07DFE00BF94
:10673C000C222649786801F083FC0346002B17D104
:10674C0007F10C0307F1100207F113017868FEF74B
:10675C004DF83B8AD9B2FB7C1A46FB68012000F04D
:10676C0073FEFB7C1946FB681A461948FFF79AFB27
:10677C000A221849786801F063FC0346002B19D1F2
:10678C000023BB627868FEF791F8B862BB6A002BF5
:10679C000DD1114B1B78022B09D10F4B00221A7013
:1067AC000E4B01229A720E4B0E4A1A6002E00A4BF3
:1067BC0001221A703037BD4680BD00BF908B000897
:1067CC00708A0008988B00089C8B0008A48B00082A
:1067DC00B48B0008D88B0008480E0020BC0B00209E
:1067EC0004000020C80B002080B400AF0F4B002227
:1067FC001A700E4B00225A700C4B00229A700B4BE5
:10680C000022DA70094B00221A71084B00225A71CF
:10681C00064B00229A71054B0022DA71034B0022C1
:10682C001A7200BFBD4680BC704700BFB00B002081
:10683C0080B400AF2B4BDB79002B03D02A4B092201
:10684C001A704CE0274B5B7883F00103DBB2002B12
:10685C0003D0254B02221A7041E0224B9B7883F027
:10686C000103DBB2002B03D01F4B03221A7036E05E
:10687C001C4BDB7883F00103DBB2002B03D01A4BEB
:10688C0004221A702BE0174B1B7983F00103DBB247
:10689C00002B03D0144B05221A7020E0114B5B79AE
:1068AC0083F00103DBB2002B03D00F4B06221A70CE
:1068BC0015E00C4B9B7983F00103DBB2002B03D06A
:1068CC00094B07221A700AE0064B1B7A83F001036E
:1068DC00DBB2002B03D0044B08221A7000BFBD465C
:1068EC0080BC7047B00B00209407002080B500AF2F
:1068FC00FFF714FC1F4B1B78092B35D801A252F85B
:10690C0023F000BF39690008756900083F69000869
:10691C00456900084B69000851690008576900086F
:10692C005D6900087569000863690008FFF780FF5E
:10693C001AE000F07DF817E000F022F914E000F006
:10694C00CFF911E000F08CFA0EE000F031FB0BE017
:10695C0000F0EAFB08E00848FFF7A4FAFFF744FF51
:10696C00044B00221A7000BF9620FEF79FFB00BF5D
:10697C0080BD00BF94070020FC8C000880B500AFE0
:10698C004FF4806202490348FDF708FC00BF80BD4C
:10699C00B00700209807002080B586B000AF0346F2
:1069AC003960FB711346BB713868FDF7A9FB0346D0
:1069BC00FB82FB79022B20D0022B2BDC002B02D08C
:1069CC00012B0DD026E000233B751448FFF76AFA23
:1069DC001348FFF767FA397D124800F084FD19E07F
:1069EC0001233B740D48FFF75DFA0F48FFF75AFA85
:1069FC00397C0C4800F077FD0CE002233B73074810
:106A0C00FFF750FA0948FFF74DFA397B054800F0BB
:106A1C006AFD00BF00BF1837BD4680BD3C8D000825
:106A2C00448D000824000020508D0008608D000863
:106A3C0080B5D4B028AF002387F8AF30474B1B7814
:106A4C00002B02D0012B35D084E045F241433B6052
:106A5C003B1D7C220021184601F0EAFA07F1800365
:106A6C0020220021184601F0E3FAFEF737FB03461B
:106A7C00C7F8A03041F65833C7F8A430384BC7F8E4
:106A8C00A830684607F110039C22194601F02EFB32
:106A9C003B460FCBFFF774FB034687F8AF3097F8F4
:106AAC00AF30002B52D02D4B1B780133DAB22B4B6D
:106ABC001A704BE007F1AC0319462A4800F04FFD61
:106ACC00034683F00103DBB2002B41D197F8AC30C5
:106ADC00022B13D0022B3DDC002B02D0012B24D037
:106AEC0038E02148FFF7DEF91C4B00221A701F4BCF
:106AFC0001225A701E4B00221A7026E01D48FFF727
:106B0C00D1F91A4B00225A70144B00221A701A4BEE
:106B1C001B78022B05D9154B0122DA71164B00227A
:106B2C001A70134B00221A700FE00C4B00221A70D3
:106B3C001248FFF7B7F9104B00221A700B4B0122C9
:106B4C00DA710B4B00221A7000BF03E000BF02E0A9
:106B5C0000BF00E000BFB037BD4680BDB90B0020C0
:106B6C00A569000824000020708D0008B00B0020DF
:106B7C0094070020788D0008BA0B0020888D00083F
:106B8C0080B5D4B028AF002387F8AF304A4B1B78C0
:106B9C00002B02D0012B3AD089E0484A3B461068C2
:106BAC00516803C312891A8007F10A037622002167
:106BBC00184601F03DFA07F1800320220021184607
:106BCC0001F036FAFEF78AFA0346C7F8A03041F610
:106BDC005833C7F8A4303A4BC7F8A830684607F1C9
:106BEC0010039C22194601F081FA3B460FCBFFF7AC
:106BFC00C7FA034687F8AF3097F8AF30002B52D066
:106C0C002D4B1B780133DAB22B4B1A704BE007F18A
:106C1C00AC0319462B4800F0A2FC034683F0010399
:106C2C00DBB2002B41D197F8AC30022B13D0022BE6
:106C3C003DDC002B02D0012B24D038E02248FFF79A
:106C4C0031F91D4B00221A70204B01229A70204BF7
:106C5C0000221A7026E01F48FFF724F91B4B002274
:106C6C009A70154B00221A701B4B1B78022B05D9FE
:106C7C00164B0122DA71184B00221A70144B0022A9
:106C8C001A700FE00C4B00221A701448FFF70AF927
:106C9C00114B00221A700D4B0122DA710C4B0022A1
:106CAC001A7000BF03E000BF02E000BF00E000BFAD
:106CBC00B037BD4680BD00BFB90B0020C48D0008A5
:106CCC00A569000824000020948D0008B00B00205A
:106CDC0094070020A08D0008BA0B0020B48D00088A
:106CEC0080B5D4B028AF002387F8AF30504B1B7859
:106CFC00002B02D0012B3AD096E04E4A3B4610684E
:106D0C00516803C3127A1A7007F109037722002124
:106D1C00184601F08DF907F1800320220021184656
:106D2C0001F086F9FEF7DAF90346C7F8A03041F610
:106D3C005833C7F8A430404BC7F8A830684607F161
:106D4C0010039C22194601F0D1F93B460FCBFFF7FB
:106D5C0017FA034687F8AF3097F8AF30002B5FD0A7
:106D6C00334B1B780133DAB2314B1A7058E007F110
:106D7C00AC031946314800F0F2FB034683F00103E3
:106D8C00DBB2002B4ED12E4B1B7E032B4CD801A219
:106D9C0052F823F00B6E0008CB6D0008EB6D000869
:106DAC00B16D00082748FFF77DF8214B00221A70BF
:106DBC00254B0022DA70254B00221A702FE0244854
:106DCC00FFF770F81A4B00221A701F4B0022DA7072
:106DDC001E4B00221A701F4B00221A701FE01E4817
:106DEC00FFF760F8124B00221A70174B0022DA7072
:106DFC00164B00221A70174B00221A700FE017481E
:106E0C00FFF750F80A4B00221A700F4B0122DA7070
:106E1C000E4B00221A700F4B00221A7000BF03E0B9
:106E2C0000BF02E000BF00E000BFB037BD4680BD30
:106E3C00B90B0020048E0008A5690008240000206E
:106E4C0008000020D08D0008B00B00209407002013
:106E5C00E08D0008BA0B0020EC8D0008F88D0008BE
:106E6C0080B5D4B028AF002387F8AF30454B1B78E2
:106E7C00002B02D0012B3AD080E0434A3B461068ED
:106E8C00516803C3127A1A7007F1090377220021A3
:106E9C00184601F0CDF807F1800320220021184696
:106EAC0001F0C6F8FEF71AF90346C7F8A03041F610
:106EBC005833C7F8A430354BC7F8A830684607F1EB
:106ECC0010039C22194601F011F93B460FCBFFF73A
:106EDC0057F9034687F8AF3097F8AF30002B4AD0FC
:106EEC00284B1B780133DAB2264B1A7043E007F1BA
:106EFC00AC031946264800F032FB034683F001032D
:106F0C00DBB2002B39D1234B5B7E012B02D0052B3E
:106F1C0010D01FE02048FEF7C5FF1A4B00221A7054
:106F2C001E4B01221A711E4B00221A701D4B00229F
:106F3C001A701FE01C48FEF7B5FF124B00221A70A6
:106F4C00164B01221A71164B00221A70154B002297
:106F5C001A700FE00F4B5B7E19461448FEF7A2FF28
:106F6C00084B00221A700D4B00221A710C4B002298
:106F7C001A7000BF02E000BF00E000BFB037BD4692
:106F8C0080BD00BFB90B0020548E0008A569000815
:106F9C002400002008000020108E0008B00B0020F8
:106FAC0094070020BA0B0020288E0008448E00089D
:106FBC0080B5D4B028AF002387F8AF30504B1B7886
:106FCC00002B02D0012B3CD097E04E4A3B46106878
:106FDC00516803C31189927A19809A7007F10B03D7
:106FEC0075220021184601F023F807F180032022B6
:106FFC000021184601F01CF8FEF770F80346C7F89C
:10700C00A03041F65833C7F8A4303F4BC7F8A8302E
:10701C00684607F110039C22194601F067F83B46BD
:10702C000FCBFFF7ADF8034687F8AF3097F8AF30CA
:10703C00002B5DD0324B1B780133DAB2304B1A7017
:10704C0056E007F1AC031946304800F088FA0346C5
:10705C0083F00103DBB2002B4CD197F8AC30022B40
:10706C0016D0022B48DC002B02D0012B2DD043E094
:10707C00234B00221A702648FEF714FF254B0122E1
:10708C005A71254B00221A70244B00221A7034E0DE
:10709C001B4B00221A702248FEF704FF1D4B0022E6
:1070AC005A711D4B1B780133DAB21B4B1A701A4BF9
:1070BC001B78022B05D9174B0122DA71164B0022D3
:1070CC001A70164B00221A7017E00D4B00221A7022
:1070DC001448FEF7E7FE0F4B00225A710D4B0122AC
:1070EC00DA710D4B00221A700C4B00221A7004E05E
:1070FC0000BF02E000BF00E000BFB037BD4680BD5E
:10710C00B90B0020948E0008A5690008240000200B
:10711C00608E0008B00B0020BA0B002094070020F2
:10712C00708E0008848E0008B0B5D6B028AF00234E
:10713C0087F8B730A64B1B78032B00F2398101A2DC
:10714C0052F823F061710008EB7100089772000887
:10715C000F7300089F4B3C1D1D4628686968AA6880
:10716C00EB680FC428696969AA6907C4AB8BAA7F4D
:10717C0023801346A37007F12303612200211846D4
:10718C0000F056FF07F1840320220021184600F07E
:10719C004FFFFDF7A3FF0346C7F8A43041F6583361
:1071AC00C7F8A8308C4BC7F8AC30684607F114030D
:1071BC009C22194600F09AFF3B1D0FCBFEF7E0FF17
:1071CC00034687F8B73097F8B730002B00F0F28001
:1071DC007F4B1B780133DAB27D4B1A70EAE007F172
:1071EC00B40319467D4800F0BAF9034683F0010355
:1071FC00DBB2002B40F0E08097F8B430022B14D0B7
:10720C00022B00F3DB80002B02D0012B2AD0D5E01F
:10721C006F4B1B780133DAB26D4B1A707048FEF766
:10722C0041FE704B00221A70CFE0694B00221A709D
:10723C006D48FEF737FE6D4B00229A71694B1B7837
:10724C000133DAB2674B1A70664B1B78022B05D9E7
:10725C00664B0122DA71634B00221A70644B0022D8
:10726C001A70B2E05A4B00221A706248FEF71AFEEE
:10727C005E4B00229A715D4B0122DA71594B002250
:10728C001A705B4B00221A709FE05B4A3B1D144640
:10729C0020686168A26807C3227B1A7007F111038A
:1072AC0073220021184600F0C3FE07F1840320224C
:1072BC000021184600F0BCFEFDF710FF0346C7F88E
:1072CC00A43042F21073C7F8A830434BC7F8AC3067
:1072DC00684607F114039C22194600F007FF3B1D7A
:1072EC000FCBFEF74DFF034687F8B73097F8B73052
:1072FC00002B65D0364B1B780133DAB2344B1A7045
:10730C005EE007F1B0031946344800F028F9034653
:10731C0083F00103DBB2002B54D197F8B030022B71
:10732C0016D0022B50DC002B02D0012B2DD04BE0C1
:10733C00274B00221A703148FEF7B4FD2B4B01226B
:10734C009A71284B00221A70294B00221A703CE0CB
:10735C001F4B00221A702A48FEF7A4FD234B002273
:10736C009A71204B1B780133DAB21E4B1A701D4BED
:10737C001B78022B05D91D4B0122DA71194B002207
:10738C001A701B4B00221A701FE0114B00221A704E
:10739C001C48FEF787FD154B00229A71134B0122F6
:1073AC00DA71104B00221A70114B00221A700CE08B
:1073BC0000BF0AE000BF08E000BF06E000BF04E029
:1073CC0000BF02E000BF00E000BFB837BD46B0BD53
:1073DC00B90B0020FC8E0008A569000824000020D1
:1073EC00A08E0008BA0B0020B08E0008B00B002055
:1073FC0094070020C48E00081C8F0008D48E00084F
:10740C00E08E0008F08E000880B483B000AF034615
:10741C00FB71044AFB79137600BF0C37BD4680BC68
:10742C00704700BF0800002080B483B000AF034653
:10743C00FB71044AFB79537600BF0C37BD4680BC08
:10744C00704700BF0800002080B483B000AF3B60E1
:10745C000346FB710B46BB711346BB80084AFB7994
:10746C005372074ABB791372054ABB881380044ACE
:10747C003B68536000BF0C37BD4680BC704700BFF3
:10748C00BC0B002080B483B000AF78607B6893F8AD
:10749C0004227B6893F805329A420CBF0123002327
:1074AC00DBB218460C37BD4680BC704780B483B045
:1074BC0000AF78607B6893F8053201337A68B2F8D4
:1074CC00022293FBF2F101FB02F29B1A7A6892F80A
:1074DC00042293420CBF01230023DBB218460C3765
:1074EC00BD4680BC704780B582B000AF7860397003
:1074FC007868FFF7DBFF0346002B01D000232AE05E
:10750C007B6893F80032002B02D0012B08D00FE0DF
:10751C007B6893F805321A4639787B68995409E0F0
:10752C007B6893F805321A4639787B68995401E0E8
:10753C00002310E07B6893F8053201337A68B2F8C7
:10754C00022293FBF2F101FB02F29B1ADAB27B6886
:10755C0083F80522012318460837BD4680BD80B547
:10756C0082B000AF786039607868FFF78BFF034614
:10757C00002B01D000232CE07B6893F80032002B09
:10758C0002D0012B09D011E07B6893F804321A4623
:10759C007B689A5C3B681A700AE07B6893F804324B
:1075AC001A467B689A5C3B681A7001E0002310E075
:1075BC007B6893F8043201337A68B2F8022293FBA9
:1075CC00F2F101FB02F29B1ADAB27B6883F8042217
:1075DC00012318460837BD4680BD000080B5D4B0E5
:1075EC0028AF002387F8AF303B4B1B78002B02D021
:1075FC00012B3AD06AE0394A3B46106851689268D0
:10760C0007C307F10C0374220021184600F010FD8B
:10761C0007F1800320220021184600F009FDFDF738
:10762C005DFD0346C7F8A03042F21073C7F8A430D2
:10763C002B4BC7F8A830684607F110039C2219465B
:10764C0000F054FD3B460FCBFEF79AFD034687F83E
:10765C00AF3097F8AF30002B05D01F4B1B780133A0
:10766C00DAB21D4B1A70002331E007F1AC03194656
:10767C001C48FFF774FF034683F00103DBB2002BB9
:10768C0001D0002323E097F8AC30022B0ED0022B54
:10769C001CDC002B02D0012B10D017E01248FEF797
:1076AC0001FC0D4B00221A70012310E00F48FEF76D
:1076BC00F9FB094B00221A70002308E0064B00224C
:1076CC001A700B48FEF7EEFB002300E000BF1846D3
:1076DC00B037BD4680BD00BF500E0020608F000843
:1076EC00A5690008240000202C8F00083C8F00089E
:1076FC00508F000880B5D4B028AF002387F8AF3086
:10770C003B4B1B78002B02D0012B3AD06AE0394A54
:10771C003B4610685168926807C307F10C0374224A
:10772C000021184600F084FC07F180032022002180
:10773C00184600F07DFCFDF7D1FC0346C7F8A030DD
:10774C0042F21073C7F8A4302B4BC7F8A830684628
:10775C0007F110039C22194600F0C8FC3B460FCBE6
:10776C00FEF70EFD034687F8AF3097F8AF30002BCD
:10777C0005D01F4B1B780133DAB21D4B1A70002356
:10778C0031E007F1AC0319461C48FFF7E8FE03464D
:10779C0083F00103DBB2002B01D0002323E097F828
:1077AC00AC30022B0ED0022B1CDC002B02D0012B98
:1077BC0010D017E01248FEF775FB0D4B00221A7023
:1077CC00012310E00F48FEF76DFB094B00221A70E5
:1077DC00002308E0064B00221A700B48FEF762FBF0
:1077EC00002300E000BF1846B037BD4680BD00BF87
:1077FC00500E0020A08F0008A5690008240000206E
:10780C006C8F00087C8F0008908F000880B5D6B074
:10781C0028AF7860002387F8B730394B1B78002BE2
:10782C0002D0012B35D066E007F10803AC22002111
:10783C00184600F0FDFBFDF751FC0346C7F8A830D5
:10784C0042F21073C7F8AC302E4BC7F8B03007F1CA
:10785C0008007B682C4A802100F078FB684607F111
:10786C0018039C22194600F041FC07F108030FCBCA
:10787C00FEF786FC034687F8B73097F8B730002B35
:10788C0005D01F4B1B780133DAB21D4B1A70002345
:10789C0032E007F1B40319461C48FFF760FE0346BB
:1078AC0083F00103DBB2002B01D0002324E097F816
:1078BC00B430022B0ED0022B1CDC002B02D0012B7F
:1078CC0010D017E01248FEF7EDFA0D4B00221A709B
:1078DC00012311E00F48FEF7E5FA094B00221A705C
:1078EC00002309E00C48FEF7DDFA054B00221A7064
:1078FC00002301E000BF00231846B837BD4680BD09
:10790C00500E0020A5690008AC8F00082400002050
:10791C00C48F0008D88F0008F08F000890B5D9B03C
:10792C0028AF0346FB71002387F8BF30444B1B780C
:10793C00002B02D0012B4CD07DE007F10803AC22C8
:10794C000021184600F074FB3E4B07F188040FCB66
:10795C0007C4237007F1950300221A605A609A60DD
:10796C00DA60C3F80F20FDF7B9FB0346C7F8A8305F
:10797C0042F21073C7F8AC30334BC7F8B030FB7918
:10798C0007F1B80211461846FCF73CFE07F1B803A4
:10799C0007F108002D4A802100F0D8FA684607F15B
:1079AC0018039C22194600F0A1FB07F108030FCB2A
:1079BC00FEF7E6FB034687F8BF3097F8BF30002B85
:1079CC0005D01F4B1B780133DAB21D4B1A70002304
:1079DC0032E007F1B40319461D48FFF7C0FD03461A
:1079EC0083F00103DBB2002B01D0002324E097F8D5
:1079FC00B430022B16D0022B1CDC002B02D0012B36
:107A0C0008D017E01348FEF74DFA0D4B00221A7000
:107A1C00012311E01048FEF745FA094B00221A70B9
:107A2C00002309E00D48FEF73DFA054B00221A70C1
:107A3C00002301E000BF00231846C437BD4690BDAB
:107A4C00500E002058900008A5690008049000080A
:107A5C0024000020189000082C900008409000088A
:107A6C0080B5D6B028AF786039603A6879685448E8
:107A7C00FEF718FA032387F8B730002387F8B630DF
:107A8C00504B1B78002B02D0012B47D092E04E4973
:107A9C007868FCF7B7FD4D493868FCF7B3FD4B4BE4
:107AAC000093494B4A4A20214A4800F04FFA07F10B
:107ABC000803AC220021184600F0BAFAFDF70EFBC1
:107ACC000346C7F8A83042F6E063C7F8AC30424B27
:107ADC00C7F8B03007F108033E49184600F0FEFA2B
:107AEC00684607F118039C22194600F0FFFA07F1CB
:107AFC0008030FCBFEF744FB034687F8B63097F824
:107B0C00B630002B08D02F4B1B780133DAB22D4B3B
:107B1C001A70324A3B68136000234CE007F1B4033F
:107B2C0019462F48FFF71BFD034683F00103DBB218
:107B3C00002B01D000233EE097F8B430022B11D07B
:107B4C00022B36DC002B02D0012B27D031E025484C
:107B5C00FEF7A8F9244B00221A701A4B00221A7057
:107B6C00012328E02148FEF79DF91F4B1B780133B8
:107B7C00DAB21D4B1A701C4B1B7897F8B7209A423F
:107B8C0007D8194B00221A700E4B00221A700023D2
:107B9C0011E00C4B00221A7000230CE01448FEF785
:107BAC0081F9114B00221A70064B00221A70002327
:107BBC0001E000BF00231846B837BD4680BD00BFAA
:107BCC0078900008500E0020540E0020600E00200B
:107BDC00A09000086C0E0020A56900084C0E002037
:107BEC0024000020B49000088C0E0020C4900008E3
:107BFC00D890000880B400AFBFF34F8F00BF064B86
:107C0C00DB6803F4E0620449044B1343CB60BFF31D
:107C1C004F8F00BF00BFFDE700ED00E00400FA0548
:107C2C0080B582B000AF0023FB716B4B1B78052B2A
:107C3C0000F2CD8001A252F823F000BF617C000855
:107C4C007F7C00089F7C0008BF7C0008F97C000842
:107C5C009D7D0008FFF7C2FC0346FB71FB79002BEE
:107C6C0000F0AA805C4B1B780133DAB25A4B1A70C5
:107C7C00A2E05A48FFF7CAFD0346FB71FB79002BC3
:107C8C0000F09C80544B1B780133DAB2524B1A70C3
:107C9C0094E00020FFF742FE0346FB71FB79002BBA
:107CAC0000F08E804C4B1B780133DAB24A4B1A70C1
:107CBC0086E04B4B5B7A012B40F084804FF0A53073
:107CCC0000F0BEF8464B5B68184600F0A3F8454838
:107CDC00FEF7E8F8FEF78CF94348FEF7E3F83E4B65
:107CEC001B780133DAB23C4B1A706BE03C4B5B7A7D
:107CFC00012B69D13A4B5B68B3F5007F28BF4FF479
:107D0C0000733A4A1360394B1B68394A1360394B7C
:107D1C001B684FF400711846FFF7A2FE304B9B7A9C
:107D2C00012B27D1314B1B68334A12681946334853
:107D3C00FEF7B8F8304B1B682C4A126830491846CD
:107D4C00FEF7BCF92F48FEF7ADF8254B5A68274BC8
:107D5C001B68D31A224A5360274B1A68234B1B68A3
:107D6C001344254A1360234B1A68204B1B68134499
:107D7C00204A13601A4B5B68002B25D12248FEF772
:107D8C0091F8154B1B780133DAB2134B1A701BE0C8
:107D9C00FFF7B0FC0346FB71FB79002B16D00E4BA2
:107DAC0000221A70194B00221A70194B4FF0006206
:107DBC009A60FFF71FFF09E000BF08E000BF06E074
:107DCC0000BF04E000BF02E000BF00E000BF00BF46
:107DDC000837BD4680BD00BF8D0E00202C02002050
:107DEC00BC0B0020EC90000800910008940E0020C1
:107DFC004C0E0020900E0020DC0200201491000894
:107E0C00C80B00203491000844910008980E002003
:107E1C0000ED00E080B582B000AF7860FDF77EFF2A
:107E2C003420FDF7E5FF79680448FDF797FFFDF76F
:107E3C0087FF00BF0837BD4680BD00BF004001086A
:107E4C0080B582B000AF78607B68B3F1FF3F03D0A0
:107E5C007B68B3F1A53F0BD1FDF760FF3420FDF734
:107E6C00C7FF79680448FDF779FFFDF769FF00E06B
:107E7C0000BF0837BD4680BD0440010880B582B004
:107E8C0000AF174B174A9A60FCF734FFFCF722FE41
:107E9C00FCF70EFEFEF772FD1348FEF703F84FF4E5
:107EAC0000511248FDF742FA114B01221A7062B6CA
:107EBC0000BF0023FB71FEF719FD0E4B1B78082B3E
:107ECC00F7D10B4B1B78002B04D0012B03D1FFF700
:107EDC00A7FE00E000BF9620FDF7E8F8E9E700BF39
:107EEC0000ED00E000400008809200080010014006
:107EFC00980E002094070020DFF834D0002103E016
:107F0C000C4B5B58435004310B480C4B42189A42B3
:107F1C00F6D30B4A02E0002342F8043B094B9A4289
:107F2C00F9D3FCF741FE00F0B3F8FFF7A7FF704759
:107F3C0000500020F492000800000020BC02002039
:107F4C00BC020020E80F0020FEE700000CB430B5A6
:107F5C00184B0C1E1D689DB008DA8B234FF0FF30B8
:107F6C002B601DB0BDE8304002B070474FF4027377
:107F7C00ADF814304FF000031B930CBF234604F1F3
:107F8C00FF33049307934FF6FF7302900690ADF8FE
:107F9C001630284621AB209A02A9019300F00AFA68
:107FAC00431CBCBF8B232B60002CDAD00022029B1D
:107FBC001A70D6E76C02002030B51446002C05462A
:107FCC001A469BB005DA8B2303604FF0FF301BB0D1
:107FDC0030BD4FF40273ADF80C304FF00003199321
:107FEC000CBF234604F1FF33029305934FF6FF7346
:107FFC0000910491ADF80E3069461E9B00F0DAF941
:10800C00431CBCBF8B232B60002CE0D00022009BB8
:10801C001A70DCE707B5009313460A46014603487D
:10802C000068FFF7C9FF03B05DF804FB6C02002089
:10803C0003460244934200D1704703F8011BF9E751
:10804C0010B56AB10139841810F8012B11F8013FF1
:10805C009A4203D1A04201D0002AF5D1D01A10BD0A
:10806C001046FCE70A7870B56AB970BD9A4209D11E
:10807C000C46054614F8013F002BF6D015F8016F9D
:10808C009E42F7D001300378002BEFD11846ECE775
:10809C0070B500260C4D0D4B5B1B9C10A64209D1F4
:1080AC00002600F093FC0A4D0A4B5B1B9C10A64269
:1080BC0005D170BD55F8043B98470136EEE755F8ED
:1080CC00043B98470136F2E7EC920008EC9200086A
:1080DC00EC920008F092000870477047034611F8C4
:1080EC00012B03F8012B002AF9D170470A44914265
:1080FC0000F1FF3300D1704710B511F8014B9142DC
:10810C0003F8014FF9D110BD38B50546002940D010
:10811C0051F8043C0C1F002BB8BFE41800F0DEF83B
:10812C001C4A136833B9636014602846BDE83840B4
:10813C0000F0DAB8A34208D9206821188B4201BF9D
:10814C0019685B6809182160EDE71A465B680BB18A
:10815C00A342FAD911685018A0420BD120680144EF
:10816C00501883421160E0D118685B6808441060B5
:10817C005360DAE702D90C232B60D6E7206821186C
:10818C008B4201BF19685B680918216063605460F9
:10819C00CBE738BDE00F002070B50F4E0C463168B0
:1081AC00054611B900F0B0FB30602146284600F0BE
:1081BC00ABFB431C03D14FF0FF34204670BDC41CF5
:1081CC0024F00304A042F8D0211A284600F09CFBAE
:1081DC000130F2D1EFE700BFDC0F00202DE9F843AE
:1081EC00CD1C25F0030508350C2D38BF0C25002DB2
:1081FC00064601DBA94204D90C2333600020BDE8FC
:10820C00F883DFF8D48000F069F8D8F800301C4609
:10821C0044BB29463046FFF7BFFF431C044658D1E8
:10822C00D8F800402746002F43D1002C4BD02368B0
:10823C003946304604EB030900F066FB814542D118
:10824C00216830466D1A2946FFF7A6FF01303AD057
:10825C0023682B442360D8F800305A6862BBC8F8F6
:10826C0000700FE02268521B20D40B2A17D9611919
:10827C00A342256018BF5960636808BFC8F8001096
:10828C0062514B60304600F02FF804F10B00231DB7
:10829C0020F00700C21A1CBF1B1AA350AFE762687C
:1082AC00A3420CBFC8F800205A60EBE72346646871
:1082BC00AEE73C467F68B6E71A465B68A342FBD143
:1082CC0000235360DEE70C233046336000F00CF8DB
:1082DC0094E70560D6E700BFE00F00200148FFF7E8
:1082EC00FBBE00BFD80F00200148FFF7F6BE00BF51
:1082FC00D80F00202DE9F0471F468E688246BE42FB
:10830C000C469046334653D8B1F90C0010F4906FDC
:10831C002BD065692368096905EB4505A3EB0109B9
:10832C0005EBD5757B1C6D104B44AB422A4684BFC4
:10833C001D462A46430527D511465046FFF74EFFEA
:10834C00064658B34A462169FFF7D0FEA38923F4A9
:10835C00906343F08003A38126614E4426603B4624
:10836C003E466561A5EB0905A5601F463A464146A8
:10837C00206800F0AFFA0020A3689B1BA360236861
:10838C003B442360BDE8F087504600F0DBFA06461C
:10839C000028E1D150462169FFF7B6FE0C23CAF83C
:1083AC000030A3894FF0FF3043F04003A381E9E78D
:1083BC003E46DBE72DE9F0471F468B8906461B0638
:1083CC000D4614469CB010D50B6973B94021FFF7CC
:1083DC0005FF2860286130B90C2333604FF0FF3063
:1083EC001CB0BDE8F08740236B6100230993202368
:1083FC008DF8293030234FF001080397644F8DF826
:10840C002A302346994613F8012B0AB1252AF9D1B3
:10841C00B9EB040A0BD05346224629463046FFF7E7
:10842C0069FF013000F0A480099A5244099299F82E
:10843C000030002B00F09C8000234FF0FF32CDE980
:10844C00052309F10109049307938DF853301A930E
:10845C004C46052214F8011B4D4800F065FA049BAC
:10846C00D0B9D80644BF20228DF85320190744BF39
:10847C002B228DF8532099F800202A2A13D04C4631
:10848C0000204FF00A0C079A214611F8013B303BB3
:10849C00092B49D968B913E0C01B08FA00F018433E
:1084AC00A1460490D4E7039A111D12680391002A87
:1084BC0001DB079204E0524243F00203079204935B
:1084CC0023782E2B0AD163782A2B32D1039B0234CA
:1084DC001A1D1B68039243EAE3730593DFF8B4900B
:1084EC0003224846217800F01FFA38B14022049B41
:1084FC00A0EB0900824013430134049314F8011BD0
:10850C00062225488DF8281000F00EFA002835D0E8
:10851C00224818BB039B073323F00703083303934C
:10852C00099B034409936CE70C4601200CFB0232B7
:10853C00AAE700234FF00A0C194601340593204694
:10854C0010F8012B303A092A03D9002BC6D005911B
:10855C00C4E7044601230CFB0121F0E703AB0093B5
:10856C002A4630460E4B04A9AFF30080421CD7D1EB
:10857C00AB895B063FF532AF099831E703AB00934B
:10858C002A463046064B04A900F07EF8EEE700BF01
:10859C00B0920008B6920008BA92000800000000E1
:1085AC00018300082DE9F047164698468A680B6946
:1085BC0007469342B8BF1346336091F843200C46EC
:1085CC00DDF820900AB1013333602368990642BF6D
:1085DC00336802333360256815F0060506D104F1C3
:1085EC00190AE36832689B1AAB422BDC94F84330CF
:1085FC002268003B18BF0123920630D4414638460E
:10860C0004F14302C847013023D02368226903F0E8
:10861C000603042B14BF002533684FF0000608BF77
:10862C00E56804F11A0408BFED1A54F8123C08BFAF
:10863C0025EAE5759342C4BF9B1AED18B5421AD1D1
:10864C00002008E00123524641463846C847013015
:10865C0003D14FF0FF30BDE8F0870135C1E7302082
:10866C00E11881F843005A1C94F845102244023357
:10867C0082F84310C2E70123224641463846C847D8
:10868C000130E6D00136D9E72DE9F0430D7E85B0F7
:10869C00782D904607460C4699460C9E01F14302F4
:1086AC0007D8622D0AD8002D00F0D780582D00F085
:1086BC00BC8004F1420684F842503BE0A5F1630310
:1086CC00152BF6D801A151F823F000BF3187000813
:1086DC0045870008BF860008BF860008BF860008D3
:1086EC00BF86000845870008BF860008BF860008C3
:1086FC00BF860008BF8600084D8800086F870008F9
:10870C00FF870008BF860008BF8600086F88000836
:10871C00BF8600086F870008BF860008BF86000868
:10872C000788000833681A1D1B68326004F1420682
:10873C0084F842300123A1E033682068191D3160B0
:10874C00060601D51D6803E04506FBD5B3F90050BC
:10875C00002D03DA2D236D4284F843300A235B4845
:10876C0011E021683368080653F8045B02D449060B
:10877C0048BFADB23360237E54486F2B5CD10823C5
:10878C00002184F843106668002EA66005DB216882
:10879C002E4321F00401216050D01646B5FBF3F1B5
:1087AC0003FB115C10F80CC006F801CDAC46634518
:1087BC000D46F3D9082B0BD12368DB0708D52369A9
:1087CC0061689942DEBF302306F8013C06F1FF36A2
:1087DC00921B2261434621463846CDF8009003AAED
:1087EC00FFF7E0FE01304ED14FF0FF3005B0BDE891
:1087FC00F083236843F0200323607825344884F801
:10880C0045502368316813F0800F51F8045B03D195
:10881C0013F0400F18BFADB23160D90744BF43F01D
:10882C00200323601DB11023AAE72848E7E723683B
:10883C0023F020032360F6E70A23A1E71646B9E7E5
:10884C0033682568181D616930602E061B6801D5D8
:10885C00196002E06806FBD51980002316462361D7
:10886C00B8E7336800211A1D32601E686268304612
:10887C0000F05AF808B1801B606063682361002324
:10888C0084F84330A6E73246414638462369C84748
:10889C000130A9D023689B0713D4E068039B98424E
:1088AC00B8BF1846A2E70123324641463846C847AE
:1088BC00013099D00135E36803995B1AAB42F2DCC5
:1088CC00EBE7002504F11906F5E700BFC19200089B
:1088DC00D2920008884210B501EB020402D98442FE
:1088EC00234607D8431EA14207D011F8012B03F8E9
:1088FC00012FF8E70244824200D110BD13F8011D8C
:10890C0002F8011DF7E7000038B50023054D0446B9
:10891C0008462B6000F04CF8431C02D12B6803B1C5
:10892C00236038BDD40F0020034610B5C9B20244F1
:10893C009342184601D1002003E0047801338C42A5
:10894C00F6D110BD2DE9F041074614460D4621B96C
:10895C001146BDE8F041FFF741BC2AB9FFF7D4FB43
:10896C0025462846BDE8F08100F01AF884420646F8
:10897C0002D8B4EB500FF4D821463846FFF72EFC42
:10898C00804608B94546ECE7B4422246294628BF42
:10899C003246FFF7ABFB29463846FFF7B5FBF1E74C
:1089AC0051F8043C181F002BBCBF0B58C018704763
:1089BC00044A05491368002B08BF0B461844106085
:1089CC0018467047E40F0020E80F0020F8B500BFF0
:1089DC00F8BC08BC9E467047F8B500BFF8BC08BC94
:0489EC009E467047EC
:1089F0002B4350494E3A00002B435245473A000062
:108A00002B48545450524541443A00004275734635
:108A100061756C742120434653523D3078253038BF
:108A20006C582C20424641523D30782530386C58E5
:108A30000D0A000010000310A000031840000304FA
:108A40000000040100000000000000020800000017
:108A50000700000054494D454F5554000D0A0000D1
:108A60003E3E20415420434D443A20005244590098
:108A70005245414459000000534D5320444F4E4548
:108A800000000000534D532052454144590000005E
:108A900043616C6C205265616479000052494E4715
:108AA000000000004E4F2043415252494552000001
:108AB00042555359000000004E4F20414E53574538
:108AC000520000004E4F524D414C20504F574552DE
:108AD00020444F574E000000554E4445522D564FEE
:108AE0004C5441474520504F57455220444F574E14
:108AF00000000000554E4445522D564F4C544147FE
:108B000045205741524E4E494E4700004F56455260
:108B10002D564F4C5441474520504F574552204405
:108B20004F574E004F5645522D564F4C54414745D6
:108B3000205741524E4E494E4700000050445020AD
:108B4000444541435400000053494D2052454D4F88
:108B50005645440053494D20494E534552544544CF
:108B60000000000047505320524541445900000086
:108B7000444F574E4C4F41440000000050422044A7
:108B80004F4E45004F4B00004552524F52000000DF
:108B90002B4350494E3A000050554B002B43524551
:108BA000473A00002B48545450414354494F4E3AE1
:108BB0000000000048545450205354415455533A37
:108BC0002025752C204854545020444154413A20CB
:108BD000256C750D0A0000002B4854545052454135
:108BE000443A000053544154555320697320484976
:108BF00047482C204D4F44454D206973206E6F77B8
:108C0000204F4E4C494E450D0A000000504F57452D
:108C100052494E47204F4E2C2050574B4559204C1F
:108C20004F572035306D730D0A000000504F5745E7
:108C300052494E47204F4E2C2050574B4559204803
:108C40004947482061626F7574203132730D0A0004
:108C500054494D454F55542C2072657472790D0A54
:108C60000000000057616974696E672053544154D5
:108C70005553204F4E0D0A0053544154555320690B
:108C800073204C4F572C204D4F44454D2069732085
:108C90006E6F77204F46464C494E450D0A00000046
:108CA000504F574552494E47204F46462C2050576B
:108CB0004B4559204C4F5720322E35730D0A00007A
:108CC000504F574552494E47204F46462C2050574B
:108CD0004B455920484947482061626F75742034DC
:108CE000730D0A0057616974696E672053544154CB
:108CF0005553204F46460D0A00000000544F4F20A8
:108D00004D5543482054494D454F55542C2045520C
:108D1000524F522053544154452054525920544FDD
:108D200020434C45415220464C41475320414E443C
:108D300020524553544152540D0A00003C213E3A02
:108D4000200000004556454E54204F4B0D0A0000B0
:108D50004556454E54204552524F520D0A000000D0
:108D60004556454E542054494D454F55540D0A0023
:108D70004154204F4B0D0A0041542054494D454F5A
:108D800055540D0A000000004154204552520D0A6E
:108D9000000000004346554E3D31204F4B0D0A0068
:108DA0004346554E3D312054494D454F55540D0ACB
:108DB000000000004346554E3D31204552520D0AF9
:108DC0000000000041542B4346554E3D3100000049
:108DD00053494D20554E444546494E45440D0A00E1
:108DE00053494D2050494E0D0A00000053494D2073
:108DF00050554B0D0A00000053494D205245414447
:108E0000590D0A0041542B4350494E3F00000000C9
:108E1000435245473A2052454749535445524544E9
:108E200020484F4D450D0A00435245473A205245D0
:108E3000474953544552454420524F414D494E47AE
:108E40000D0A0000435245473A20302C25640D0A94
:108E50000000000041542B435245473F00000000F2
:108E600043474154543D31204F4B0D0A0000000050
:108E700043474154543D312054494D454F55540DBD
:108E80000A00000043474154543D31204552520DE1
:108E90000A00000041542B43474154543D31000027
:108EA000434744434F4E54204F4B0D0A00000000EF
:108EB000434744434F4E542054494D454F55540D5C
:108EC0000A000000434744434F4E54204552520D80
:108ED0000A0000004347414354204F4B0D0A000055
:108EE00043474143542054494D454F55540D0A00C2
:108EF0004347414354204552520D0A0041542B43ED
:108F00004744434F4E543D312C224950222C227667
:108F10002D696E7465726E657422000041542B4396
:108F2000474143543D312C31000000004854545017
:108F300020494E4954204F4B0D0A000048545450CC
:108F400020494E49542054494D454F55540D0A006F
:108F50004854545020494E4954204552520D0A005D
:108F600041542B48545450494E495400485454508D
:108F7000205445524D204F4B0D0A00004854545088
:108F8000205445524D2054494D454F55540D0A002B
:108F900048545450205445524D204552520D0A0019
:108FA00041542B485454505445524D0041542B4881
:108FB000545450504152413D2255524C222C2225AE
:108FC0007322000048545450205345542055524CAD
:108FD000204F4B0D0A000000485454502053455474
:108FE0002055524C2054494D454F55540D0A000010
:108FF00048545450205345542055524C2045525209
:109000000D0A000041542B48545450414354494FD9
:109010004E3D2573000000004854545020414354F5
:10902000494F4E204F4B0D0A000000004854545049
:1090300020414354494F4E204552520D0A00000032
:109040004854545020414354494F4E2054494D45B3
:109050004F55540D0A0000002B48545450414354BE
:10906000494F4E3A000000000000000000000000E0
:10907000000000000000000067736D5F687474708A
:109080005F72656164286F66667365743D256C75F3
:109090002C206368756E6B3D256C75290D0A0000E8
:1090A00041542B48545450524541443D25732C257E
:1090B000730000004854545052454144204F4B0D1A
:1090C0000A00000048545450524541442054494D30
:1090D000454F55540D0A00004854545052454144E0
:1090E000204552524F520D0A000000004572617334
:1090F000652057323551333220636869700D0A009C
:109100004572617365206368697020646F6E650DD8
:109110000A00000057726974696E67202564206236
:109120007974657320746F2030782530366C580D53
:109130000A000000577269746520646F6E650D0A3D
:10914000000000004649524D5741524520534156B8
:1091500045440D0A000000000D0A3D3D3D3D3D2007
:109160005732355133322046495253542031323828
:10917000204259544553203D3D3D3D3D0D0A0000E0
:1091800025303258200000000D0A00003D3D3D3DD5
:109190003D20454E44204649525354203132382018
:1091A0003D3D3D3D3D0D0A0D0A000000465720742F
:1091B0006F6F20736D616C6C20746F2064756D70BF
:1091C000206C6173742031323820627974657321A8
:1091D0000D0A00003D3D3D3D3D20573235513332B3
:1091E000204C4153542031323820425954455320A9
:1091F00028616464722030782530366C5829203D0F
:109200003D3D3D3D0D0A00003D3D3D3D3D20454E6F
:1092100044204C41535420313238203D3D3D3D3DAA
:109220000D0A0D0A000000000D0A3D3D3D3D3D3D8B
:109230003D3D3D3D20434845434B494E4720573235
:1092400035513332204649524D57415245203D3D1C
:109250003D3D3D3D3D3D3D3D0D0A00003D3D3D3D1B
:109260003D3D3D3D3D3D20454E4420434845434B1B
:10927000203D3D3D3D3D3D3D3D3D3D0D0A0D0A003E
:109280004150502052554E0D0A00000000000000D1
:1092900000000000010203040607080900000000A6
:1092A0000102030401020304060708090204060878
:1092B000232D302B2000686C4C00656667454647BF
:1092C0000030313233343536373839414243444542
:1092D00046003031323334353637383961626364B1
:0492E00065660000BF
:0892E40028AEFF7F010000002D
:0492EC0085410008B0
:0492F0005D410008D4
:1092F40000A24A04C80B0020000000000000000087
:109304000000000000000000000000000000000059
:109314000304000000000000000000000000000042
:109324000000000000000000000000000000000039
:109334000000000000000000000000000000000029
:109344000000000000000000000000000000000019
:109354000000000000000000000000000000000009
:1093640000000000000000000000000000000000F9
:1093740000000000000000000000000000000000E9
:1093840000000000000000000000000000000000D9
:1093940000000000000000000000000000000000C9
:1093A40000000000000000000000000000000000B9
:1093B40000000000000000000000000000000000A9
:1093C4000000000000000000000000000000000099
:1093D4000000000000000000000000000000000089
:1093E4000000000000000000000000000000000079
:1093F4000000000000000000000000000000000069
:109404000000000000000000000000000000000058
:109414000000000000000000000000000000000048
:109424000000000000000000000000000000000038
:109434000000000000000000000000000000000028
:109444000000000000000000000000000000000018
:109454000000000000000000000000000000000008
:1094640000000000000000000000000000000000F8
:1094740000000000000000000000000000000000E8
:1094840000000000000000000000000000000000D8
:1094940000000000000000000000000000000000C8
:1094A40000000000000000000000000000000000B8
:1094B40000000000000000000000000000000000A8
:1094C4000000000000000000000000000000000098
:1094D4000000000000000000000000000000000088
:1094E4000000000000000000000000000000000078
:1094F4000000000000000000000000000000000068
:109504000000000000000000000000000000000057
:109514000000000000000002000000006874747085
:109524003A2F2F31332E3231322E3137392E313614
:10953400372F6F74612F7A5F6275696C642F61379E
:10954400363730632E62696E0000000000000000B0
:109554000000000000000000000000007002002075
:10956400000000009C0E0020040F00206C0F00205F
:1095740000000000000000000000000000000000E7
:1095840000000000000000000000000000000000D7
:1095940000000000000000000000000000000000C7
:0C95A400000000000000000000000000BB
:0400000508007F056B
:00000001FF
